:060000008031012B00001D
:0800080083018031200077081C
:10001000A0007808A1007908A2007A08A3008B1E2E
:1000200013280B191C282008F7002108F8002208C3
:10003000F9002308FA00090080311E28AA0AAE0A36
:100040000319AF0A0B1180311328420B2D28210010
:100050000E1122000E153128200021000E11220061
:100060000E1120000800430B3B2821008E102200B7
:100070008E143F28200021008E1022008E102000B8
:100080000800420B492821000E1022000E144D28B2
:10009000200021000E1022000E1020000800480849
:1000A0000319BF28D2004C080319BF28D207031830
:1000B00060287F30D202031CBF280319BF286428A0
:1000C0008130D2070318BF285208F700F801F90160
:1000D000FA014908D600D6174A08D5004B08D400C3
:1000E0001830D200D301541C8D284F08FA07031C86
:1000F0007F28F90A031D7F28F80A0319D3174E0831
:10010000F907031C8628F80A0319D3174D08CA00FB
:10011000CA174A08F8070318D317D30DF80CF90CBF
:10012000FA0CD60CD50CD40C0310D20B722801306B
:10013000F7070318BF28F81BA428D60DFA0DF90DF0
:10014000F80DF7030319BF28D61FB528FA0A031DB7
:10015000B528F90A031DB528F80A031DB528F80CBF
:10016000F90CFA0CF70A0319BF284908D3004D0807
:10017000D306D31FBD28F817C328F813C328F701E7
:10018000F801F901FA01080021008C1420008C18F4
:10019000CB28AA01C4282A08B60021000C1520008B
:1001A0000C19D5282A08B700CD2836083702C30114
:1001B000C2008E30F7004308F8004208F900FA0147
:1001C000F808031DED287908F800F9010830F70256
:1001D000F808031DED28F701F5280310F81BF42893
:1001E000F90DF80DF703ED28F8137A08BB0079082C
:1001F000BA007808B9007708B8003B08C5003A088B
:10020000C4003908C3003808C200C901C8017A30E7
:10021000C7008830C60042080319D029D00046081C
:100220000319D029D002031C1A297F30D0070318E4
:10023000D02920298130D002031CD0290319D029CC
:100240005008F700F801F901FA01CF014308CE0088
:10025000CE174408CD004508CC001930D00049081D
:10026000CC02031843290130CD0203184329CE02E2
:1002700003184329CF0203184329CF0ACE0ACD0A17
:100280004908CC0775294808CD0203185E290130BA
:10029000CE0203185E29CF0203185E29CF0ACE0AC8
:1002A0004808CD074908CC07031C7529CD0A031D52
:1002B0007529CE0A031D7529CF0A7529470880388C
:1002C000CE02031874290130CF0203187429CF0A13
:1002D00047088038CE074808CD07031C5229CE0AAC
:1002E000031D5229CF0A52297A14D00B7829832969
:1002F0000310CC0DCD0DCE0DCF0D0310FA0DF90D61
:10030000F80DD10D2F29511C8B290310F80CF90C75
:10031000FA0CD10C8E29F7030319D029D11BB72968
:100320000310CC0DCD0DCE0DCF0D4908CC02031816
:10033000A3290130CD020318A329CE020318A32953
:10034000CF02031CC6294808CD020318AE2901308C
:10035000CE020318AE29CF02031CC62947088038F5
:10036000CE020318B7290130CF02031CC629FA0AAE
:10037000031DC629F90A031DC629F80A031DC6294B
:10038000F70A0319D029F80CF90CFA0C4308D0002D
:100390004708D006D01FCE29F817D429F813D4293E
:1003A000F701F801F901FA017A08C1007908C000E3
:1003B0007808BF007708BE004108CB004008CA009B
:1003C0003F08C9003E08C800CF01CE014830CD002B
:1003D0008430CC004F207A08C7007908C60078081E
:1003E000C5007708C4007A08CB007908CA007808ED
:1003F000C9007708C800CF01CE013430CD00873066
:10040000CC004F207A08C1007908C0007808BF00EE
:100410007708BE004108C5004008C4003F08C3007B
:100420003E08C2008E30F7004208F7024308F90088
:100430004408F800F917F7080319292A0310F908E6
:10044000031D252AF8080319292AF90CF80CF70BC3
:100450001E2AC31F302AF809F909F80A0319F90AF4
:100460007808BC00AA013C083C3C03183D2A3C0823
:10047000953C031C3D2A3D143E2A3D100800703077
:10048000210099001E109E10013023008C000030C6
:100490008E0021001E169E161E139E171D14150891
:1004A000C039023895008B16C0308B042000C20181
:1004B00025200130C3003320C2014120C420BD10DB
:1004C000AD018031632BC420C201420DF700F70D4E
:1004D000FC30F70521001D08833977049D009D1429
:1004E0009D18702A1C08F9001B08F800F80078080D
:1004F0002000C3000A30C4004408F8014302031876
:10050000842A4308F700902AF7010830C500C30D7C
:10051000F70D440877020318F700F80DC50B872A7A
:100520007808AB00BD1DAF2AF4303207C20001309D
:10053000333DC3002F02031CAF2A031DA32A420828
:100540002E02031CAF2A0430BD0600303D190130D5
:10055000C200C30033202F08B3002E08B2000310DE
:100560002C0C2B020319B82A031CB82ABD10B92A77
:10057000BD14BD18E72A3D1CE72A88303007C200A9
:100580001330313DC3002F02031CE62A031DCC2A81
:1005900042082E02031CE62AAD080319D12A0030B6
:1005A000D22A0130AD002D0BDC2A0130C2002520FB
:1005B000C2014120BD15E12AC2012520C20141200E
:1005C000BD15AC0A2F08B1002E08B000FF2ABD1CD3
:1005D000F72A3D1CF72ABD110130C2002520013049
:1005E000C3003320C2014120AF01AE01FF2ABD117B
:1005F000C30133200130C2004120C20125208031D7
:10060000642B5730F70020308400003085008001D3
:10061000840AF70B072BF801F901FA01FB01FC0131
:10062000FD01FE015030F700A0308400003085004D
:100630008001840AF70B182B5030F700203084001B
:10064000013085008001840AF70B222B8501503090
:10065000F700A0308400013085008001840AF70B88
:100660002D2B85015030F7002030840002308500AA
:100670008001840AF70B382B85015030F700A03039
:100680008400023085008001840AF70B432B85012A
:100690001030F70020308400033085008001840A88
:1006A000F70B4E2B8501A00170302100990023002B
:1006B0008C018E012200920191019401930120008E
:0C06C000A401A5013F2A632A632B6300FC
:020000040001F9
:04000E00E43FFF3A92
:00000001FF
;PIC16LF1574
;CRC=433B  CREATED="28-Apr-23 17:25"
