:0600000080311B2B000003
:0800080083018031200077081C
:10001000A0007808A1007908A2007A08A3008B1E2E
:1000200013280B192328850191308400801C1A287D
:10003000911825282008F7002108F8002208F90067
:100040002308FA0009008031272880312B28AA0ACA
:100050000B1180311A28AE0A0319AF0A91108031B2
:100060001A2848080319A128D2004C080319A1280E
:10007000D207031842287F30D202031CA12803199B
:10008000A12846288130D2070318A1285208F7007A
:10009000F801F901FA014908D600D6174A08D50037
:1000A0004B08D4001830D200D301541C6F284F08DD
:1000B000FA07031C6128F90A031D6128F80A0319CD
:1000C000D3174E08F907031C6828F80A0319D31739
:1000D0004D08CA00CA174A08F8070318D317D30DEA
:1000E000F80CF90CFA0CD60CD50CD40C0310D20B6E
:1000F00054280130F7070318A128F81B8628D60DCD
:10010000FA0DF90DF80DF7030319A128D61F97284A
:10011000FA0A031D9728F90A031D9728F80A031DF8
:100120009728F80CF90CFA0CF70A0319A1284908CA
:10013000D3004D08D306D31F9F28F817A528F8131E
:10014000A528F701F801F901FA01080021008C1433
:1001500020008C18AD28AA01A6282A08B600210084
:100160000C1520000C19B7282A08B700AF2836084C
:100170003702C301C2008E30F7004308F80042087E
:10018000F900FA01F808031DCF287908F800F901F1
:100190000830F702F808031DCF28F701D72803100D
:1001A000F81BD628F90DF80DF703CF28F8137A08B5
:1001B000BB007908BA007808B9007708B8003B0896
:1001C000C5003A08C4003908C3003808C200C90194
:1001D0002430C8007430C7008930C60042080319B3
:1001E000B329D00046080319B329D002031CFD2807
:1001F0007F30D0070318B32903298130D002031CB4
:10020000B3290319B3295008F700F801F901FA01DD
:10021000CF014308CE00CE174408CD004508CC00DE
:100220001930D0004908CC02031826290130CD022C
:1002300003182629CE0203182629CF0203182629DF
:10024000CF0ACE0ACD0A4908CC0758294808CD0262
:10025000031841290130CE0203184129CF020318A7
:100260004129CF0ACE0A4808CD074908CC07031C0C
:100270005829CD0A031D5829CE0A031D5829CF0A33
:10028000582947088038CE02031857290130CF0279
:1002900003185729CF0A47088038CE074808CD07EA
:1002A000031C3529CE0A031D3529CF0A35297A14B6
:1002B000D00B5B2966290310CC0DCD0DCE0DCF0DD3
:1002C0000310FA0DF90DF80DD10D1229511C6E29EC
:1002D0000310F80CF90CFA0CD10C7129F70303196F
:1002E000B329D11B9A290310CC0DCD0DCE0DCF0D06
:1002F0004908CC02031886290130CD02031886294B
:10030000CE0203188629CF02031CA9294808CD0272
:10031000031891290130CE0203189129CF02031C42
:10032000A92947088038CE0203189A290130CF0244
:10033000031CA929FA0A031DA929F90A031DA929E1
:10034000F80A031DA929F70A0319B329F80CF90CB7
:10035000FA0C4308D0004708D006D01FB129F8177F
:10036000B729F813B729F701F801F901FA017A085A
:10037000C1007908C0007808BF007708BE004108B6
:10038000CB004008CA003F08C9003E08C800CF01A2
:10039000CE014830CD008430CC0031207A08C7002F
:1003A0007908C6007808C5007708C4007A08CB0031
:1003B0007908CA007808C9007708C800CF01CE01C3
:1003C0003430CD008730CC0031207A08C100790864
:1003D000C0007808BF007708BE004108C50040088B
:1003E000C4003F08C3003E08C2008E30F700420838
:1003F000F7024308F9004408F800F917F708031951
:100400000C2A0310F908031D082AF80803190C2AFE
:10041000F90CF80CF70B012AC31F132AF809F90984
:10042000F80A0319F90A7808BC00AA013C08733CD1
:100430000318202A3C087C3C031C202A3D14212A56
:100440003D1008007030210099001E109E100130F0
:1004500023008C0000308E0021001E169E161E13F5
:100460009E171D141508C039013895007830F80022
:10047000073820009C00C3309B008B16210091148C
:10048000C0308B042000A620BD1080317D2B430B93
:100490004F2A21008E1022008E14532A20002100A2
:1004A0008E1022008E1020000800420B5D2A2100D1
:1004B0000E1122000E15612A200021000E112200CB
:1004C0000E1120000800420B6B2A21000E102200A2
:1004D0000E146F2A200021000E1022000E102000A2
:1004E00008000A303407C2000030353DC3002F0237
:1004F000031C802A031D7F2A42082E020318A6200F
:10050000C201420DF700F70DFC30F70521001D0870
:10051000833977049D009D149D188C2A1C08F900CE
:100520001B08F800F80078082000C3000A30C40057
:100530004408F80143020318A02A4308F700AC2A34
:10054000F7010830C500C30DF70D44087702031802
:10055000F700F80DC50BA32A7808AB00BD1DCB2A08
:1005600005303207C2000030333DC3002F02031CA8
:10057000CB2A031DBF2A42082E02031CCB2A0430BB
:10058000BD0600303D190130C200C30047222F08CC
:10059000B3002E08B20003102C0C2B020319D42A2E
:1005A000031CD42ABD10D52ABD14BD18032B3D1C35
:1005B000032B32303007C2000030313DC3002F0220
:1005C000031C022B031DE82A42082E02031C022BE7
:1005D000AD080319ED2A0030EE2A0130AD002D0BD5
:1005E000F82A0130C2005522C2016322BD15FD2A3E
:1005F000C2015522C2016322BD15AC0A2F08B10009
:100600002E08B000192BBD1C112B3D1C112BBD1148
:100610000130C20055220130C3004722C2016322CB
:10062000192BBD11C30147220130C2006322C20150
:10063000552280317E2B5730F70020308400003067
:1006400085008001840AF70B212BF801F901FA01DA
:10065000FB01FC01FD01FE015030F700A0308400D9
:10066000003085008001840AF70B322B5030F700F0
:1006700020308400013085008001840AF70B3C2B78
:1006800085015030F700A0308400013085008001E2
:10069000840AF70B472B85015030F7002030840087
:1006A000023085008001840AF70B522B85015030FF
:1006B000F700A0308400023085008001840AF70B27
:1006C0005D2B85011030F700203084000330850059
:1006D0008001840AF70B682B8501A001703021008E
:1006E000990023008C018E01220092019101940156
:1006F00093012000A401A501222A712A7D2B630009
:020000040001F9
:04000E00E43FFF3A92
:00000001FF
;PIC16LF1574
;CRC=715F  CREATED="28-Apr-23 16:11"
